:100000000C9446000C9465000C9465000C946500FB
:100010000C9465000C9465000C9465000C946500CC
:100020000C9465000C9465000C9465000C946500BC
:100030000C9465000C94DE000C9465000C94650033
:100040000C9465000C9465000C9465000C9465009C
:100050000C9465000C9465000C9465000C9465008C
:100060000C9465000C9465000C9465000C9465007C
:100070000C9465000C9465000C9465000C9465006C
:100080000C9465000C9465000C94650011241FBE4F
:10009000CFEFD0E4DEBFCDBF11E0A0E0B1E0ECEFE8
:1000A000F4E000E00BBF02C007900D92A231B1074F
:1000B000D9F721E0A2E1B1E001C01D92AC31B20755
:1000C000E1F70E943F020C947C020C940000CF9355
:1000D000DF9300D01F92CDB7DEB789837B836A831D
:1000E00089818A3031F48A819B81BC018DE00E9434
:1000F000670080EC90E0FC018081882F90E08072A6
:100100009927892BB1F386EC90E02981FC012083AB
:1001100080E090E00F900F900F90DF91CF910895C5
:10012000CF93DF93CDB7DEB781E890E02BE0FC0101
:10013000208388E890E02DE730E0FC0131832083C4
:100140008FE690E022E0FC01208384E890E0FC014F
:100150001182108280910E0190910F01A0911001E7
:10016000B09111018093130190931401A093150194
:10017000B09316018FE590E02FE530E0F901208182
:100180002068FC0120830000DF91CF910895CF9378
:10019000DF93CDB7DEB781E890E0FC01108200006C
:1001A000DF91CF910895CF93DF93CDB7DEB781E094
:1001B000809312010000DF91CF9108951F920F925A
:1001C00000905F000F92112400905B000F922F931C
:1001D0003F934F935F936F937F938F939F93AF93CF
:1001E000BF93EF93FF93CF93DF93CDB7DEB78091AB
:1001F000130190911401A0911501B091160101977E
:10020000A109B1098093130190931401A0931501E2
:10021000B09316018091130190911401A0911501E2
:10022000B0911601892B8A2B8B2B91F40E94D3005D
:1002300080910E0190910F01A0911001B0911101D8
:100240008093130190931401A0931501B0931601AC
:100250000000DF91CF91FF91EF91BF91AF919F91FE
:100260008F917F916F915F914F913F912F910F905F
:1002700000925B000F9000925F000F901F90189506
:10028000CF93DF9300D000D0CDB7DEB769837A83F8
:100290008B839C8389819A81AB81BC8180930E0181
:1002A00090930F01A0931001B093110180910E0162
:1002B00090910F01A0911001B09111018093130151
:1002C00090931401A0931501B093160100000F90B4
:1002D0000F900F900F90DF91CF910895CF93DF9300
:1002E000CDB7DEB780911A0190911B018130910545
:1002F00091F08130910540F08230910509F443C0BE
:10030000039709F46BC0AFC081E090E090931B01AC
:1003100080931A01B0C080911901882339F082E0DE
:1003200090E090931B0180931A01A5C08091170162
:10033000882329F485E290E021E0FC01208380916C
:100340001701813029F485E290E022E0FC0120834E
:1003500080911701823029F485E290E024E0FC01CD
:100360002083809117018F5F80931701809117017F
:10037000833010F01092170181E090E090931B0100
:1003800080931A0178C080911901882369F08091C7
:100390001801813049F41092180183E090E09093A5
:1003A0001B0180931A0166C080911901882339F0DE
:1003B00082E090E090931B0180931A015BC08091D2
:1003C0001901882309F056C081E08093180182E06A
:1003D00090E090931B0180931A014CC08091190109
:1003E000882369F080911801813049F41092180136
:1003F00082E090E090931B0180931A013CC08091B1
:100400001701882329F485E290E021E0FC01208394
:1004100080911701813029F485E290E022E0FC010F
:10042000208380911701823029F485E290E024E056
:10043000FC012083809117018F5F809317018091C9
:100440001701833010F01092170180911901882351
:1004500019F481E08093180183E090E090931B01F0
:1004600080931A0108C081E090E090931B01809373
:100470001A0101C000000000DF91CF910895CF93D1
:10048000DF93CDB7DEB784E290E02FEFFC0120834D
:1004900085E290E0FC01108281E290E0FC01108294
:1004A00080E290E02FEFFC0120836CE271E080E0BD
:1004B00090E00E9440010E94900081E090E09093C3
:1004C0001B0180931A0180E290E0FC018081882F5B
:1004D00090E08170992721E0892B09F020E0822F9C
:1004E000809319010E946E010000809112018823FF
:0C04F000E1F310921201E7CFF894FFCF67
:1004FC000000000200000000670000000000010086
:02050C000000ED
:00000001FF
