:100000000C944E000C946D000C946D000C946D00DB
:100010000C946D000C946D000C946D000C946D00AC
:100020000C946D000C946D000C946D000C946D009C
:100030000C946D000C94E6000C946D000C946D0013
:100040000C946D000C946D000C946D000C946D007C
:100050000C946D000C946D000C946D000C946D006C
:100060000C946D000C946D000C946D000C946D005C
:100070000C946D000C946D000C946D000C946D004C
:100080000C946D000C946D000C946D009001C801EF
:10009000ED011D0240026C0277028D0211241FBE89
:1000A000CFEFD0E4DEBFCDBF11E0A0E0B1E0EEE3E2
:1000B000F6E000E00BBF02C007900D92A231B1073D
:1000C000D9F721E0A2E1B1E001C01D92AB31B20746
:1000D000E1F70E94CC020C941D030C940000CF9316
:1000E000DF9300D01F92CDB7DEB789837B836A830D
:1000F00089818A3031F48A819B81BC018DE00E9424
:100100006F0080EC90E0FC018081882F90E080728D
:100110009927892BB1F386EC90E02981FC0120839B
:1001200080E090E00F900F900F90DF91CF910895B5
:10013000CF93DF93CDB7DEB781E890E02BE0FC01F1
:10014000208388E890E02DE730E0FC0131832083B4
:100150008FE690E022E0FC01208384E890E0FC013F
:100160001182108280910E0190910F01A0911001D7
:10017000B09111018093130190931401A093150184
:10018000B09316018FE590E02FE530E0F901208172
:100190002068FC0120830000DF91CF910895CF9368
:1001A000DF93CDB7DEB781E890E0FC01108200005C
:1001B000DF91CF910895CF93DF93CDB7DEB781E084
:1001C000809312010000DF91CF9108951F920F924A
:1001D00000905F000F92112400905B000F922F930C
:1001E0003F934F935F936F937F938F939F93AF93BF
:1001F000BF93EF93FF93CF93DF93CDB7DEB780919B
:10020000130190911401A0911501B091160101976D
:10021000A109B1098093130190931401A0931501D2
:10022000B09316018091130190911401A0911501D2
:10023000B0911601892B8A2B8B2B91F40E94DB0045
:1002400080910E0190910F01A0911001B0911101C8
:100250008093130190931401A0931501B09316019C
:100260000000DF91CF91FF91EF91BF91AF919F91EE
:100270008F917F916F915F914F913F912F910F904F
:1002800000925B000F9000925F000F901F901895F6
:10029000CF93DF9300D000D0CDB7DEB769837A83E8
:1002A0008B839C8389819A81AB81BC8180930E0171
:1002B00090930F01A0931001B093110180910E0152
:1002C00090910F01A0911001B09111018093130141
:1002D00090931401A0931501B093160100000F90A4
:1002E0000F900F900F90DF91CF910895CF93DF93F0
:1002F000CDB7DEB78091170190911801CC01A0E035
:10030000B0E040E050E027E030E0841B950B281778
:10031000390708F437C18A5B9F4FFC010C94140322
:1003200085E290E027E0FC01208380911901882379
:1003300059F080911A01882339F481E090E090937C
:1003400018018093170123C080911901882359F463
:1003500080911A01882339F083E090E0909318018E
:100360008093170114C080911901882359F080915E
:100370001A01882339F085E090E09093180180936A
:10038000170105C0109218011092170101C100C198
:1003900085E290E0FC018081893048F485E290E0BC
:1003A00025E230E0F90120812F5FFC01208380915C
:1003B0001901882359F080911A01882339F085E0CA
:1003C00090E09093180180931701E2C082E090E0E2
:1003D0009093180180931701DBC080911901882345
:1003E00059F080911A01882339F085E090E09093CC
:1003F00018018093170120C080911901882359F0BA
:1004000080911A01882339F482E090E090931801DA
:100410008093170111C080911901882309F0B7C09A
:1004200080911A01882309F0B2C087E090E0909390
:10043000180180931701ABC0AAC085E290E0FC01CF
:100440008081882339F085E290E0FC0120812150F1
:10045000FC01208380911901882359F080911A01B1
:10046000882339F085E090E090931801809317017C
:100470008FC084E090E0909318018093170188C0AA
:1004800080911901882359F080911A01882339F04D
:1004900085E090E090931801809317011DC0809132
:1004A0001A01882359F080911901882339F484E0D6
:1004B00090E090931801809317010EC080911A016B
:1004C000882351F480911901882331F487E090E06A
:1004D000909318018093170185E290E0FC0110824F
:1004E00086E090E0909318018093170151C08091AD
:1004F0001901882359F480911A01882339F487E07F
:1005000090E0909318018093170142C086E090E03C
:1005100090931801809317013BC0809119018823A3
:1005200059F080911A01882339F481E090E090938A
:1005300018018093170125C080911901882359F46F
:1005400080911A01882339F083E090E0909318019C
:100550008093170116C080911901882359F080916A
:100560001A01882339F085E090E090931801809378
:10057000170107C087E090E090931801809317015E
:1005800007C006C0109218011092170101C00000A8
:100590000000DF91CF910895CF93DF93CDB7DEB701
:1005A00084E290E02FEFFC01208385E290E0FC01E3
:1005B000108281E290E0FC01108280E290E02FEF57
:1005C000FC01208364E670E080E090E00E94480136
:1005D0000E949800109218011092170185E290E095
:1005E00027E0FC01208380E290E0FC018081882FDD
:1005F00090E08170992721E0892B09F020E0822F7B
:100600008093190180E290E0FC01808180958270E6
:1006100080931A010E9476010000809112018823C4
:10062000E1F310921201DFCFEE0FFF1F0024001C38
:0E0630000BBE0790F691E02D0994F894FFCFD1
:10063E0000000002000000006F000000000001003A
:02064E000000AA
:00000001FF
