:100000000C9446000C9465000C9465000C946500FB
:100010000C9465000C9465000C9465000C946500CC
:100020000C9465000C9465000C9465000C946500BC
:100030000C9465000C94DE000C9465000C94650033
:100040000C9465000C9465000C9465000C9465009C
:100050000C9465000C9465000C9465000C9465008C
:100060000C9465000C9465000C9465000C9465007C
:100070000C9465000C9465000C9465000C9465006C
:100080000C9465000C9465000C94650011241FBE4F
:10009000CFEFD0E4DEBFCDBF11E0A0E0B1E0EAE4F5
:1000A000F6E000E00BBF02C007900D92A231B1074D
:1000B000D9F721E0A2E1B1E001C01D92AD31B20754
:1000C000E1F70E94DB020C9423030C940000CF9311
:1000D000DF9300D01F92CDB7DEB789837B836A831D
:1000E00089818A3031F48A819B81BC018DE00E9434
:1000F000670080EC90E0FC018081882F90E08072A6
:100100009927892BB1F386EC90E02981FC012083AB
:1001100080E090E00F900F900F90DF91CF910895C5
:10012000CF93DF93CDB7DEB781E890E02BE0FC0101
:10013000208388E890E02DE730E0FC0131832083C4
:100140008FE690E022E0FC01208384E890E0FC014F
:100150001182108280910E0190910F01A0911001E7
:10016000B09111018093130190931401A093150194
:10017000B09316018FE590E02FE530E0F901208182
:100180002068FC0120830000DF91CF910895CF9378
:10019000DF93CDB7DEB781E890E0FC01108200006C
:1001A000DF91CF910895CF93DF93CDB7DEB781E094
:1001B000809312010000DF91CF9108951F920F925A
:1001C00000905F000F92112400905B000F922F931C
:1001D0003F934F935F936F937F938F939F93AF93CF
:1001E000BF93EF93FF93CF93DF93CDB7DEB78091AB
:1001F000130190911401A0911501B091160101977E
:10020000A109B1098093130190931401A0931501E2
:10021000B09316018091130190911401A0911501E2
:10022000B0911601892B8A2B8B2B91F40E94D3005D
:1002300080910E0190910F01A0911001B0911101D8
:100240008093130190931401A0931501B0931601AC
:100250000000DF91CF91FF91EF91BF91AF919F91FE
:100260008F917F916F915F914F913F912F910F905F
:1002700000925B000F9000925F000F901F90189506
:10028000CF93DF9300D000D0CDB7DEB769837A83F8
:100290008B839C8389819A81AB81BC8180930E0181
:1002A00090930F01A0931001B093110180910E0162
:1002B00090910F01A0911001B09111018093130151
:1002C00090931401A0931501B093160100000F90B4
:1002D0000F900F900F90DF91CF910895CF93DF9300
:1002E000CDB7DEB78091190190911A018230910546
:1002F00009F4A6C08330910530F4009781F001978E
:1003000009F445C04CC18430910509F4FDC0843026
:10031000910508F4EEC0059709F40CC140C185E2CF
:1003200090E027E0FC01208380911B01882359F095
:1003300080911C01882339F481E090E090931A01A8
:100340008093190123C080911B01882359F4809167
:100350001C01882339F082E090E090931A01809389
:10036000190114C080911B01882359F080911C0150
:10037000882339F083E090E090931A01809319016B
:1003800005C010921A011092190111C110C185E225
:1003900090E0FC018081893088F4809118018823E5
:1003A00069F481E08093180185E290E025E230E075
:1003B000F90120812F5FFC0120831EC085E290E0BF
:1003C000FC0180818930C0F4809118018130A1F452
:1003D000809117018F5F80931701809117018A30F8
:1003E00059F485E290E025E230E0F90120812F5FA9
:1003F000FC0120831092170180911B01882359F082
:1004000080911C01882339F083E090E090931A01D9
:1004100080931901C9C080911B01882309F0C4C0D1
:1004200080911C01882309F0BFC01092180110921E
:10043000170185E090E090931A0180931901B4C0F0
:1004400085E290E0FC018081882389F08091180189
:10045000882369F485E290E025E230E0F90120810B
:100460002150FC01208381E0809318011EC085E2A9
:1004700090E0FC0180818823C1F0809118018130D7
:10048000A1F4809117018F5F80931701809117016C
:100490008A3059F485E290E025E230E0F9012081CC
:1004A0002150FC0120831092170180911B018823A9
:1004B00059F080911C01882339F083E090E09093FB
:1004C0001A018093190172C080911B01882309F0E1
:1004D0006DC080911C01882309F068C0109218013A
:1004E0001092170185E090E090931A018093190112
:1004F0005DC085E290E0FC01108284E090E0909382
:100500001A018093190153C080911B01882359F46B
:1005100080911C01882339F485E090E090931A01C2
:100520008093190144C084E090E090931A01809375
:1005300019013DC080911B01882359F080911C0155
:10054000882339F481E090E090931A018093190197
:1005500025C080911B01882359F480911C018823B8
:1005600039F082E090E090931A018093190116C04F
:1005700080911B01882359F080911C01882339F058
:1005800083E090E090931A018093190107C085E001
:1005900090E090931A018093190109C008C010924D
:1005A0001A011092190103C0000001C000000000F0
:1005B000DF91CF910895CF93DF93CDB7DEB784E27B
:1005C00090E02FEFFC01208385E290E0FC01108297
:1005D00081E290E0FC01108280E290E02FEFFC01CC
:1005E000208364E670E080E090E00E9440010E9479
:1005F000900010921A011092190185E290E027E014
:10060000FC01208380E290E0FC018081882F90E053
:100610008170992721E0892B09F020E0822F8093B7
:100620001B0180E290E0FC018081809582708093C4
:100630001C010E946E010000809112018823E1F3E9
:0A06400010921201DFCFF894FFCFF3
:10064A000000000200000000670000000000010036
:02065A0000009E
:00000001FF
